{
  "_format": "hh-sol-artifact-1",
  "contractName": "ComplianceGate",
  "sourceName": "contracts/ComplianceGate.sol",
  "abi": [
    {
      "inputs": [],
      "stateMutability": "nonpayable",
      "type": "constructor"
    },
    {
      "inputs": [
        {
          "internalType": "address",
          "name": "owner",
          "type": "address"
        }
      ],
      "name": "OwnableInvalidOwner",
      "type": "error"
    },
    {
      "inputs": [
        {
          "internalType": "address",
          "name": "account",
          "type": "address"
        }
      ],
      "name": "OwnableUnauthorizedAccount",
      "type": "error"
    },
    {
      "anonymous": false,
      "inputs": [
        {
          "indexed": true,
          "internalType": "bytes32",
          "name": "identityHash",
          "type": "bytes32"
        },
        {
          "indexed": true,
          "internalType": "address",
          "name": "issuer",
          "type": "address"
        }
      ],
      "name": "ComplianceVerified",
      "type": "event"
    },
    {
      "anonymous": false,
      "inputs": [
        {
          "indexed": true,
          "internalType": "address",
          "name": "issuer",
          "type": "address"
        }
      ],
      "name": "IssuerAdded",
      "type": "event"
    },
    {
      "anonymous": false,
      "inputs": [
        {
          "indexed": true,
          "internalType": "address",
          "name": "previousOwner",
          "type": "address"
        },
        {
          "indexed": true,
          "internalType": "address",
          "name": "newOwner",
          "type": "address"
        }
      ],
      "name": "OwnershipTransferred",
      "type": "event"
    },
    {
      "inputs": [
        {
          "internalType": "address",
          "name": "issuer",
          "type": "address"
        }
      ],
      "name": "addTrustedIssuer",
      "outputs": [],
      "stateMutability": "nonpayable",
      "type": "function"
    },
    {
      "inputs": [
        {
          "internalType": "bytes32",
          "name": "",
          "type": "bytes32"
        }
      ],
      "name": "isCompliant",
      "outputs": [
        {
          "internalType": "bool",
          "name": "",
          "type": "bool"
        }
      ],
      "stateMutability": "view",
      "type": "function"
    },
    {
      "inputs": [],
      "name": "owner",
      "outputs": [
        {
          "internalType": "address",
          "name": "",
          "type": "address"
        }
      ],
      "stateMutability": "view",
      "type": "function"
    },
    {
      "inputs": [],
      "name": "renounceOwnership",
      "outputs": [],
      "stateMutability": "nonpayable",
      "type": "function"
    },
    {
      "inputs": [
        {
          "internalType": "bytes32",
          "name": "identityHash",
          "type": "bytes32"
        },
        {
          "internalType": "address",
          "name": "to",
          "type": "address"
        },
        {
          "internalType": "uint256",
          "name": "amount",
          "type": "uint256"
        }
      ],
      "name": "transferImpactFunds",
      "outputs": [],
      "stateMutability": "nonpayable",
      "type": "function"
    },
    {
      "inputs": [
        {
          "internalType": "address",
          "name": "newOwner",
          "type": "address"
        }
      ],
      "name": "transferOwnership",
      "outputs": [],
      "stateMutability": "nonpayable",
      "type": "function"
    },
    {
      "inputs": [
        {
          "internalType": "address",
          "name": "",
          "type": "address"
        }
      ],
      "name": "trustedIssuers",
      "outputs": [
        {
          "internalType": "bool",
          "name": "",
          "type": "bool"
        }
      ],
      "stateMutability": "view",
      "type": "function"
    },
    {
      "inputs": [
        {
          "internalType": "bytes32",
          "name": "identityHash",
          "type": "bytes32"
        },
        {
          "internalType": "address",
          "name": "issuer",
          "type": "address"
        },
        {
          "internalType": "bytes",
          "name": "proof",
          "type": "bytes"
        }
      ],
      "name": "verifyCompliance",
      "outputs": [],
      "stateMutability": "nonpayable",
      "type": "function"
    }
  ],
  "bytecode": "0x608060405234801561001057600080fd5b5033600073ffffffffffffffffffffffffffffffffffffffff168173ffffffffffffffffffffffffffffffffffffffff16036100845760006040517f1e4fbdf700000000000000000000000000000000000000000000000000000000815260040161007b919061019e565b60405180910390fd5b6100938161009960201b60201c565b506101b9565b60008060009054906101000a900473ffffffffffffffffffffffffffffffffffffffff169050816000806101000a81548173ffffffffffffffffffffffffffffffffffffffff021916908373ffffffffffffffffffffffffffffffffffffffff1602179055508173ffffffffffffffffffffffffffffffffffffffff168173ffffffffffffffffffffffffffffffffffffffff167f8be0079c531659141344cd1fd0a4f28419497f9722a3daafe3b4186f6b6457e060405160405180910390a35050565b600073ffffffffffffffffffffffffffffffffffffffff82169050919050565b60006101888261015d565b9050919050565b6101988161017d565b82525050565b60006020820190506101b3600083018461018f565b92915050565b610a74806101c86000396000f3fe608060405234801561001057600080fd5b50600436106100885760003560e01c8063acebe8fc1161005b578063acebe8fc14610115578063c4566bdd14610131578063e0d260331461014d578063f2fde38b1461016957610088565b8063088707381461008d578063715018a6146100bd5780638da5cb5b146100c757806392c54daf146100e5575b600080fd5b6100a760048036038101906100a2919061066f565b610185565b6040516100b491906106b7565b60405180910390f35b6100c56101a5565b005b6100cf6101b9565b6040516100dc9190610713565b60405180910390f35b6100ff60048036038101906100fa919061075a565b6101e2565b60405161010c91906106b7565b60405180910390f35b61012f600480360381019061012a91906107bd565b610202565b005b61014b6004803603810190610146919061075a565b610269565b005b61016760048036038101906101629190610875565b61030e565b005b610183600480360381019061017e919061075a565b610456565b005b60026020528060005260406000206000915054906101000a900460ff1681565b6101ad6104dc565b6101b76000610563565b565b60008060009054906101000a900473ffffffffffffffffffffffffffffffffffffffff16905090565b60016020528060005260406000206000915054906101000a900460ff1681565b826002600082815260200190815260200160002060009054906101000a900460ff16610263576040517f08c379a000000000000000000000000000000000000000000000000000000000815260040161025a90610946565b60405180910390fd5b50505050565b6102716104dc565b60018060008373ffffffffffffffffffffffffffffffffffffffff1673ffffffffffffffffffffffffffffffffffffffff16815260200190815260200160002060006101000a81548160ff0219169083151502179055508073ffffffffffffffffffffffffffffffffffffffff167f05e7c881d716bee8cb7ed92293133ba156704252439e5c502c277448f04e20c260405160405180910390a250565b600160008473ffffffffffffffffffffffffffffffffffffffff1673ffffffffffffffffffffffffffffffffffffffff16815260200190815260200160002060009054906101000a900460ff1661039a576040517f08c379a0000000000000000000000000000000000000000000000000000000008152600401610391906109b2565b60405180910390fd5b600082829050116103e0576040517f08c379a00000000000000000000000000000000000000000000000000000000081526004016103d790610a1e565b60405180910390fd5b60016002600086815260200190815260200160002060006101000a81548160ff0219169083151502179055508273ffffffffffffffffffffffffffffffffffffffff16847f4a04dbaf72c0c9571a7dcb140e6f93ec38193ae37a50fe6d2ebba3128362dbcc60405160405180910390a350505050565b61045e6104dc565b600073ffffffffffffffffffffffffffffffffffffffff168173ffffffffffffffffffffffffffffffffffffffff16036104d05760006040517f1e4fbdf70000000000000000000000000000000000000000000000000000000081526004016104c79190610713565b60405180910390fd5b6104d981610563565b50565b6104e4610627565b73ffffffffffffffffffffffffffffffffffffffff166105026101b9565b73ffffffffffffffffffffffffffffffffffffffff161461056157610525610627565b6040517f118cdaa70000000000000000000000000000000000000000000000000000000081526004016105589190610713565b60405180910390fd5b565b60008060009054906101000a900473ffffffffffffffffffffffffffffffffffffffff169050816000806101000a81548173ffffffffffffffffffffffffffffffffffffffff021916908373ffffffffffffffffffffffffffffffffffffffff1602179055508173ffffffffffffffffffffffffffffffffffffffff168173ffffffffffffffffffffffffffffffffffffffff167f8be0079c531659141344cd1fd0a4f28419497f9722a3daafe3b4186f6b6457e060405160405180910390a35050565b600033905090565b600080fd5b600080fd5b6000819050919050565b61064c81610639565b811461065757600080fd5b50565b60008135905061066981610643565b92915050565b6000602082840312156106855761068461062f565b5b60006106938482850161065a565b91505092915050565b60008115159050919050565b6106b18161069c565b82525050565b60006020820190506106cc60008301846106a8565b92915050565b600073ffffffffffffffffffffffffffffffffffffffff82169050919050565b60006106fd826106d2565b9050919050565b61070d816106f2565b82525050565b60006020820190506107286000830184610704565b92915050565b610737816106f2565b811461074257600080fd5b50565b6000813590506107548161072e565b92915050565b6000602082840312156107705761076f61062f565b5b600061077e84828501610745565b91505092915050565b6000819050919050565b61079a81610787565b81146107a557600080fd5b50565b6000813590506107b781610791565b92915050565b6000806000606084860312156107d6576107d561062f565b5b60006107e48682870161065a565b93505060206107f586828701610745565b9250506040610806868287016107a8565b9150509250925092565b600080fd5b600080fd5b600080fd5b60008083601f84011261083557610834610810565b5b8235905067ffffffffffffffff81111561085257610851610815565b5b60208301915083600182028301111561086e5761086d61081a565b5b9250929050565b6000806000806060858703121561088f5761088e61062f565b5b600061089d8782880161065a565b94505060206108ae87828801610745565b935050604085013567ffffffffffffffff8111156108cf576108ce610634565b5b6108db8782880161081f565b925092505092959194509250565b600082825260208201905092915050565b7f436f6d706c69616e636520636865636b20726571756972656400000000000000600082015250565b60006109306019836108e9565b915061093b826108fa565b602082019050919050565b6000602082019050818103600083015261095f81610923565b9050919050565b7f497373756572206e6f7420747275737465640000000000000000000000000000600082015250565b600061099c6012836108e9565b91506109a782610966565b602082019050919050565b600060208201905081810360008301526109cb8161098f565b9050919050565b7f456d7074792070726f6f66000000000000000000000000000000000000000000600082015250565b6000610a08600b836108e9565b9150610a13826109d2565b602082019050919050565b60006020820190508181036000830152610a37816109fb565b905091905056fea264697066735822122034f5d9a0440c36bffec9506647ae3897a5bbdb5951597a7ae129f06b5342338b64736f6c63430008180033",
  "linkReferences": {},
  "deployedLinkReferences": {}
}