{
  "_format": "hh-sol-artifact-1",
  "contractName": "SocialRecoveryWallet",
  "sourceName": "contracts/SocialRecoveryWallet.sol",
  "abi": [
    {
      "inputs": [
        {
          "internalType": "address",
          "name": "_owner",
          "type": "address"
        },
        {
          "internalType": "address[]",
          "name": "_guardians",
          "type": "address[]"
        },
        {
          "internalType": "uint256",
          "name": "_threshold",
          "type": "uint256"
        }
      ],
      "stateMutability": "nonpayable",
      "type": "constructor"
    },
    {
      "anonymous": false,
      "inputs": [
        {
          "indexed": true,
          "internalType": "address",
          "name": "proposedOwner",
          "type": "address"
        }
      ],
      "name": "RecoveryStarted",
      "type": "event"
    },
    {
      "anonymous": false,
      "inputs": [
        {
          "indexed": true,
          "internalType": "address",
          "name": "newOwner",
          "type": "address"
        }
      ],
      "name": "RecoverySuccessful",
      "type": "event"
    },
    {
      "anonymous": false,
      "inputs": [
        {
          "indexed": true,
          "internalType": "address",
          "name": "guardian",
          "type": "address"
        },
        {
          "indexed": true,
          "internalType": "address",
          "name": "proposedOwner",
          "type": "address"
        }
      ],
      "name": "VoteCast",
      "type": "event"
    },
    {
      "inputs": [],
      "name": "currentRequest",
      "outputs": [
        {
          "internalType": "address",
          "name": "proposedNewOwner",
          "type": "address"
        },
        {
          "internalType": "uint256",
          "name": "voteCount",
          "type": "uint256"
        },
        {
          "internalType": "bool",
          "name": "active",
          "type": "bool"
        }
      ],
      "stateMutability": "view",
      "type": "function"
    },
    {
      "inputs": [
        {
          "internalType": "address",
          "name": "target",
          "type": "address"
        },
        {
          "internalType": "uint256",
          "name": "value",
          "type": "uint256"
        },
        {
          "internalType": "bytes",
          "name": "data",
          "type": "bytes"
        }
      ],
      "name": "execute",
      "outputs": [
        {
          "internalType": "bytes",
          "name": "",
          "type": "bytes"
        }
      ],
      "stateMutability": "nonpayable",
      "type": "function"
    },
    {
      "inputs": [
        {
          "internalType": "uint256",
          "name": "",
          "type": "uint256"
        }
      ],
      "name": "guardians",
      "outputs": [
        {
          "internalType": "address",
          "name": "",
          "type": "address"
        }
      ],
      "stateMutability": "view",
      "type": "function"
    },
    {
      "inputs": [
        {
          "internalType": "address",
          "name": "_newOwner",
          "type": "address"
        }
      ],
      "name": "initiateRecovery",
      "outputs": [],
      "stateMutability": "nonpayable",
      "type": "function"
    },
    {
      "inputs": [],
      "name": "owner",
      "outputs": [
        {
          "internalType": "address",
          "name": "",
          "type": "address"
        }
      ],
      "stateMutability": "view",
      "type": "function"
    },
    {
      "inputs": [],
      "name": "threshold",
      "outputs": [
        {
          "internalType": "uint256",
          "name": "",
          "type": "uint256"
        }
      ],
      "stateMutability": "view",
      "type": "function"
    },
    {
      "stateMutability": "payable",
      "type": "receive"
    }
  ],
  "bytecode": "0x60806040523480156200001157600080fd5b50604051620012d9380380620012d98339818101604052810190620000379190620003be565b80825110156200007e576040517f08c379a000000000000000000000000000000000000000000000000000000000815260040162000075906200049a565b60405180910390fd5b826000806101000a81548173ffffffffffffffffffffffffffffffffffffffff021916908373ffffffffffffffffffffffffffffffffffffffff1602179055508160019080519060200190620000d6929190620000e7565b5080600281905550505050620004bc565b82805482825590600052602060002090810192821562000163579160200282015b82811115620001625782518260006101000a81548173ffffffffffffffffffffffffffffffffffffffff021916908373ffffffffffffffffffffffffffffffffffffffff1602179055509160200191906001019062000108565b5b50905062000172919062000176565b5090565b5b808211156200019157600081600090555060010162000177565b5090565b6000604051905090565b600080fd5b600080fd5b600073ffffffffffffffffffffffffffffffffffffffff82169050919050565b6000620001d682620001a9565b9050919050565b620001e881620001c9565b8114620001f457600080fd5b50565b6000815190506200020881620001dd565b92915050565b600080fd5b6000601f19601f8301169050919050565b7f4e487b7100000000000000000000000000000000000000000000000000000000600052604160045260246000fd5b6200025e8262000213565b810181811067ffffffffffffffff8211171562000280576200027f62000224565b5b80604052505050565b60006200029562000195565b9050620002a3828262000253565b919050565b600067ffffffffffffffff821115620002c657620002c562000224565b5b602082029050602081019050919050565b600080fd5b6000620002f3620002ed84620002a8565b62000289565b90508083825260208201905060208402830185811115620003195762000318620002d7565b5b835b81811015620003465780620003318882620001f7565b8452602084019350506020810190506200031b565b5050509392505050565b600082601f8301126200036857620003676200020e565b5b81516200037a848260208601620002dc565b91505092915050565b6000819050919050565b620003988162000383565b8114620003a457600080fd5b50565b600081519050620003b8816200038d565b92915050565b600080600060608486031215620003da57620003d96200019f565b5b6000620003ea86828701620001f7565b935050602084015167ffffffffffffffff8111156200040e576200040d620001a4565b5b6200041c8682870162000350565b92505060406200042f86828701620003a7565b9150509250925092565b600082825260208201905092915050565b7f5468726573686f6c6420746f6f20686967680000000000000000000000000000600082015250565b60006200048260128362000439565b91506200048f826200044a565b602082019050919050565b60006020820190508181036000830152620004b58162000473565b9050919050565b610e0d80620004cc6000396000f3fe6080604052600436106100595760003560e01c806342cde4e8146100655780638da5cb5b14610090578063a3af3cee146100bb578063b61d27f6146100e8578063d5ce9aad14610125578063f560c7341461014e57610060565b3661006057005b600080fd5b34801561007157600080fd5b5061007a61018b565b6040516100879190610808565b60405180910390f35b34801561009c57600080fd5b506100a5610191565b6040516100b29190610864565b60405180910390f35b3480156100c757600080fd5b506100d06101b5565b6040516100df9392919061089a565b60405180910390f35b3480156100f457600080fd5b5061010f600480360381019061010a9190610998565b6101fa565b60405161011c9190610a9c565b60405180910390f35b34801561013157600080fd5b5061014c60048036038101906101479190610abe565b610349565b005b34801561015a57600080fd5b5061017560048036038101906101709190610aeb565b6107b0565b6040516101829190610864565b60405180910390f35b60025481565b60008054906101000a900473ffffffffffffffffffffffffffffffffffffffff1681565b60038060000160009054906101000a900473ffffffffffffffffffffffffffffffffffffffff16908060010154908060020160009054906101000a900460ff16905083565b606060008054906101000a900473ffffffffffffffffffffffffffffffffffffffff1673ffffffffffffffffffffffffffffffffffffffff163373ffffffffffffffffffffffffffffffffffffffff161461028a576040517f08c379a000000000000000000000000000000000000000000000000000000000815260040161028190610b75565b60405180910390fd5b6000808673ffffffffffffffffffffffffffffffffffffffff168686866040516102b5929190610bd4565b60006040518083038185875af1925050503d80600081146102f2576040519150601f19603f3d011682016040523d82523d6000602084013e6102f7565b606091505b50915091508161033c576040517f08c379a000000000000000000000000000000000000000000000000000000000815260040161033390610c39565b60405180910390fd5b8092505050949350505050565b6000805b6001805490508110156103e1573373ffffffffffffffffffffffffffffffffffffffff166001828154811061038557610384610c59565b5b9060005260206000200160009054906101000a900473ffffffffffffffffffffffffffffffffffffffff1673ffffffffffffffffffffffffffffffffffffffff16036103d457600191506103e1565b808060010191505061034d565b5080610422576040517f08c379a000000000000000000000000000000000000000000000000000000000815260040161041990610cd4565b60405180910390fd5b8173ffffffffffffffffffffffffffffffffffffffff16600360000160009054906101000a900473ffffffffffffffffffffffffffffffffffffffff1673ffffffffffffffffffffffffffffffffffffffff161461059e5781600360000160006101000a81548173ffffffffffffffffffffffffffffffffffffffff021916908373ffffffffffffffffffffffffffffffffffffffff16021790555060006003600101819055506001600360020160006101000a81548160ff02191690831515021790555060005b60018054905081101561059c5760006003800160006001848154811061051357610512610c59565b5b9060005260206000200160009054906101000a900473ffffffffffffffffffffffffffffffffffffffff1673ffffffffffffffffffffffffffffffffffffffff1673ffffffffffffffffffffffffffffffffffffffff16815260200190815260200160002060006101000a81548160ff02191690831515021790555080806001019150506104ea565b505b6003800160003373ffffffffffffffffffffffffffffffffffffffff1673ffffffffffffffffffffffffffffffffffffffff16815260200190815260200160002060009054906101000a900460ff161561062d576040517f08c379a000000000000000000000000000000000000000000000000000000000815260040161062490610d40565b60405180910390fd5b60016003800160003373ffffffffffffffffffffffffffffffffffffffff1673ffffffffffffffffffffffffffffffffffffffff16815260200190815260200160002060006101000a81548160ff0219169083151502179055506003600101600081548092919061069d90610d8f565b91905055508173ffffffffffffffffffffffffffffffffffffffff163373ffffffffffffffffffffffffffffffffffffffff167f113ed09b18bb8fe2635af16f21d67464502d920ff1015abfe08dbe9a2971a7e260405160405180910390a3600254600360010154106107ac57816000806101000a81548173ffffffffffffffffffffffffffffffffffffffff021916908373ffffffffffffffffffffffffffffffffffffffff1602179055506000600360020160006101000a81548160ff0219169083151502179055508173ffffffffffffffffffffffffffffffffffffffff167f33026346ca62ca8e76fb4bc5ba37c95aa2cdc0b2b83d44181136c1a49ff507bf60405160405180910390a25b5050565b600181815481106107c057600080fd5b906000526020600020016000915054906101000a900473ffffffffffffffffffffffffffffffffffffffff1681565b6000819050919050565b610802816107ef565b82525050565b600060208201905061081d60008301846107f9565b92915050565b600073ffffffffffffffffffffffffffffffffffffffff82169050919050565b600061084e82610823565b9050919050565b61085e81610843565b82525050565b60006020820190506108796000830184610855565b92915050565b60008115159050919050565b6108948161087f565b82525050565b60006060820190506108af6000830186610855565b6108bc60208301856107f9565b6108c9604083018461088b565b949350505050565b600080fd5b600080fd5b6108e481610843565b81146108ef57600080fd5b50565b600081359050610901816108db565b92915050565b610910816107ef565b811461091b57600080fd5b50565b60008135905061092d81610907565b92915050565b600080fd5b600080fd5b600080fd5b60008083601f84011261095857610957610933565b5b8235905067ffffffffffffffff81111561097557610974610938565b5b6020830191508360018202830111156109915761099061093d565b5b9250929050565b600080600080606085870312156109b2576109b16108d1565b5b60006109c0878288016108f2565b94505060206109d18782880161091e565b935050604085013567ffffffffffffffff8111156109f2576109f16108d6565b5b6109fe87828801610942565b925092505092959194509250565b600081519050919050565b600082825260208201905092915050565b60005b83811015610a46578082015181840152602081019050610a2b565b60008484015250505050565b6000601f19601f8301169050919050565b6000610a6e82610a0c565b610a788185610a17565b9350610a88818560208601610a28565b610a9181610a52565b840191505092915050565b60006020820190508181036000830152610ab68184610a63565b905092915050565b600060208284031215610ad457610ad36108d1565b5b6000610ae2848285016108f2565b91505092915050565b600060208284031215610b0157610b006108d1565b5b6000610b0f8482850161091e565b91505092915050565b600082825260208201905092915050565b7f4e6f74206f776e65720000000000000000000000000000000000000000000000600082015250565b6000610b5f600983610b18565b9150610b6a82610b29565b602082019050919050565b60006020820190508181036000830152610b8e81610b52565b9050919050565b600081905092915050565b82818337600083830152505050565b6000610bbb8385610b95565b9350610bc8838584610ba0565b82840190509392505050565b6000610be1828486610baf565b91508190509392505050565b7f5472616e73616374696f6e206661696c65640000000000000000000000000000600082015250565b6000610c23601283610b18565b9150610c2e82610bed565b602082019050919050565b60006020820190508181036000830152610c5281610c16565b9050919050565b7f4e487b7100000000000000000000000000000000000000000000000000000000600052603260045260246000fd5b7f4e6f74206120677561726469616e000000000000000000000000000000000000600082015250565b6000610cbe600e83610b18565b9150610cc982610c88565b602082019050919050565b60006020820190508181036000830152610ced81610cb1565b9050919050565b7f416c726561647920766f74656400000000000000000000000000000000000000600082015250565b6000610d2a600d83610b18565b9150610d3582610cf4565b602082019050919050565b60006020820190508181036000830152610d5981610d1d565b9050919050565b7f4e487b7100000000000000000000000000000000000000000000000000000000600052601160045260246000fd5b6000610d9a826107ef565b91507fffffffffffffffffffffffffffffffffffffffffffffffffffffffffffffffff8203610dcc57610dcb610d60565b5b60018201905091905056fea2646970667358221220a35e0348525be0efe95d1edfc1c48b164297c2f3f9b80eb33854c2c10866bfca64736f6c63430008180033",
  "linkReferences": {},
  "deployedLinkReferences": {}
}