{
  "_format": "hh-sol-artifact-1",
  "contractName": "SoulboundID",
  "sourceName": "contracts/SoulboundID.sol",
  "abi": [
    {
      "inputs": [],
      "stateMutability": "nonpayable",
      "type": "constructor"
    },
    {
      "inputs": [
        {
          "internalType": "address",
          "name": "sender",
          "type": "address"
        },
        {
          "internalType": "uint256",
          "name": "tokenId",
          "type": "uint256"
        },
        {
          "internalType": "address",
          "name": "owner",
          "type": "address"
        }
      ],
      "name": "ERC721IncorrectOwner",
      "type": "error"
    },
    {
      "inputs": [
        {
          "internalType": "address",
          "name": "operator",
          "type": "address"
        },
        {
          "internalType": "uint256",
          "name": "tokenId",
          "type": "uint256"
        }
      ],
      "name": "ERC721InsufficientApproval",
      "type": "error"
    },
    {
      "inputs": [
        {
          "internalType": "address",
          "name": "approver",
          "type": "address"
        }
      ],
      "name": "ERC721InvalidApprover",
      "type": "error"
    },
    {
      "inputs": [
        {
          "internalType": "address",
          "name": "operator",
          "type": "address"
        }
      ],
      "name": "ERC721InvalidOperator",
      "type": "error"
    },
    {
      "inputs": [
        {
          "internalType": "address",
          "name": "owner",
          "type": "address"
        }
      ],
      "name": "ERC721InvalidOwner",
      "type": "error"
    },
    {
      "inputs": [
        {
          "internalType": "address",
          "name": "receiver",
          "type": "address"
        }
      ],
      "name": "ERC721InvalidReceiver",
      "type": "error"
    },
    {
      "inputs": [
        {
          "internalType": "address",
          "name": "sender",
          "type": "address"
        }
      ],
      "name": "ERC721InvalidSender",
      "type": "error"
    },
    {
      "inputs": [
        {
          "internalType": "uint256",
          "name": "tokenId",
          "type": "uint256"
        }
      ],
      "name": "ERC721NonexistentToken",
      "type": "error"
    },
    {
      "inputs": [
        {
          "internalType": "address",
          "name": "owner",
          "type": "address"
        }
      ],
      "name": "OwnableInvalidOwner",
      "type": "error"
    },
    {
      "inputs": [
        {
          "internalType": "address",
          "name": "account",
          "type": "address"
        }
      ],
      "name": "OwnableUnauthorizedAccount",
      "type": "error"
    },
    {
      "anonymous": false,
      "inputs": [
        {
          "indexed": true,
          "internalType": "address",
          "name": "owner",
          "type": "address"
        },
        {
          "indexed": true,
          "internalType": "address",
          "name": "approved",
          "type": "address"
        },
        {
          "indexed": true,
          "internalType": "uint256",
          "name": "tokenId",
          "type": "uint256"
        }
      ],
      "name": "Approval",
      "type": "event"
    },
    {
      "anonymous": false,
      "inputs": [
        {
          "indexed": true,
          "internalType": "address",
          "name": "owner",
          "type": "address"
        },
        {
          "indexed": true,
          "internalType": "address",
          "name": "operator",
          "type": "address"
        },
        {
          "indexed": false,
          "internalType": "bool",
          "name": "approved",
          "type": "bool"
        }
      ],
      "name": "ApprovalForAll",
      "type": "event"
    },
    {
      "anonymous": false,
      "inputs": [
        {
          "indexed": true,
          "internalType": "address",
          "name": "user",
          "type": "address"
        },
        {
          "indexed": false,
          "internalType": "uint256",
          "name": "tokenId",
          "type": "uint256"
        }
      ],
      "name": "IdentityMinted",
      "type": "event"
    },
    {
      "anonymous": false,
      "inputs": [
        {
          "indexed": true,
          "internalType": "address",
          "name": "previousOwner",
          "type": "address"
        },
        {
          "indexed": true,
          "internalType": "address",
          "name": "newOwner",
          "type": "address"
        }
      ],
      "name": "OwnershipTransferred",
      "type": "event"
    },
    {
      "anonymous": false,
      "inputs": [
        {
          "indexed": true,
          "internalType": "address",
          "name": "from",
          "type": "address"
        },
        {
          "indexed": true,
          "internalType": "address",
          "name": "to",
          "type": "address"
        },
        {
          "indexed": true,
          "internalType": "uint256",
          "name": "tokenId",
          "type": "uint256"
        }
      ],
      "name": "Transfer",
      "type": "event"
    },
    {
      "inputs": [
        {
          "internalType": "address",
          "name": "",
          "type": "address"
        }
      ],
      "name": "addressToTokenId",
      "outputs": [
        {
          "internalType": "uint256",
          "name": "",
          "type": "uint256"
        }
      ],
      "stateMutability": "view",
      "type": "function"
    },
    {
      "inputs": [
        {
          "internalType": "address",
          "name": "to",
          "type": "address"
        },
        {
          "internalType": "uint256",
          "name": "tokenId",
          "type": "uint256"
        }
      ],
      "name": "approve",
      "outputs": [],
      "stateMutability": "nonpayable",
      "type": "function"
    },
    {
      "inputs": [
        {
          "internalType": "address",
          "name": "owner",
          "type": "address"
        }
      ],
      "name": "balanceOf",
      "outputs": [
        {
          "internalType": "uint256",
          "name": "",
          "type": "uint256"
        }
      ],
      "stateMutability": "view",
      "type": "function"
    },
    {
      "inputs": [
        {
          "internalType": "uint256",
          "name": "tokenId",
          "type": "uint256"
        }
      ],
      "name": "getApproved",
      "outputs": [
        {
          "internalType": "address",
          "name": "",
          "type": "address"
        }
      ],
      "stateMutability": "view",
      "type": "function"
    },
    {
      "inputs": [
        {
          "internalType": "address",
          "name": "owner",
          "type": "address"
        },
        {
          "internalType": "address",
          "name": "operator",
          "type": "address"
        }
      ],
      "name": "isApprovedForAll",
      "outputs": [
        {
          "internalType": "bool",
          "name": "",
          "type": "bool"
        }
      ],
      "stateMutability": "view",
      "type": "function"
    },
    {
      "inputs": [
        {
          "internalType": "address",
          "name": "to",
          "type": "address"
        }
      ],
      "name": "mintIdentity",
      "outputs": [
        {
          "internalType": "uint256",
          "name": "",
          "type": "uint256"
        }
      ],
      "stateMutability": "nonpayable",
      "type": "function"
    },
    {
      "inputs": [],
      "name": "name",
      "outputs": [
        {
          "internalType": "string",
          "name": "",
          "type": "string"
        }
      ],
      "stateMutability": "view",
      "type": "function"
    },
    {
      "inputs": [],
      "name": "owner",
      "outputs": [
        {
          "internalType": "address",
          "name": "",
          "type": "address"
        }
      ],
      "stateMutability": "view",
      "type": "function"
    },
    {
      "inputs": [
        {
          "internalType": "uint256",
          "name": "tokenId",
          "type": "uint256"
        }
      ],
      "name": "ownerOf",
      "outputs": [
        {
          "internalType": "address",
          "name": "",
          "type": "address"
        }
      ],
      "stateMutability": "view",
      "type": "function"
    },
    {
      "inputs": [],
      "name": "renounceOwnership",
      "outputs": [],
      "stateMutability": "nonpayable",
      "type": "function"
    },
    {
      "inputs": [
        {
          "internalType": "address",
          "name": "from",
          "type": "address"
        },
        {
          "internalType": "address",
          "name": "to",
          "type": "address"
        },
        {
          "internalType": "uint256",
          "name": "tokenId",
          "type": "uint256"
        }
      ],
      "name": "safeTransferFrom",
      "outputs": [],
      "stateMutability": "nonpayable",
      "type": "function"
    },
    {
      "inputs": [
        {
          "internalType": "address",
          "name": "from",
          "type": "address"
        },
        {
          "internalType": "address",
          "name": "to",
          "type": "address"
        },
        {
          "internalType": "uint256",
          "name": "tokenId",
          "type": "uint256"
        },
        {
          "internalType": "bytes",
          "name": "data",
          "type": "bytes"
        }
      ],
      "name": "safeTransferFrom",
      "outputs": [],
      "stateMutability": "nonpayable",
      "type": "function"
    },
    {
      "inputs": [
        {
          "internalType": "address",
          "name": "operator",
          "type": "address"
        },
        {
          "internalType": "bool",
          "name": "approved",
          "type": "bool"
        }
      ],
      "name": "setApprovalForAll",
      "outputs": [],
      "stateMutability": "nonpayable",
      "type": "function"
    },
    {
      "inputs": [
        {
          "internalType": "bytes4",
          "name": "interfaceId",
          "type": "bytes4"
        }
      ],
      "name": "supportsInterface",
      "outputs": [
        {
          "internalType": "bool",
          "name": "",
          "type": "bool"
        }
      ],
      "stateMutability": "view",
      "type": "function"
    },
    {
      "inputs": [],
      "name": "symbol",
      "outputs": [
        {
          "internalType": "string",
          "name": "",
          "type": "string"
        }
      ],
      "stateMutability": "view",
      "type": "function"
    },
    {
      "inputs": [
        {
          "internalType": "uint256",
          "name": "tokenId",
          "type": "uint256"
        }
      ],
      "name": "tokenURI",
      "outputs": [
        {
          "internalType": "string",
          "name": "",
          "type": "string"
        }
      ],
      "stateMutability": "view",
      "type": "function"
    },
    {
      "inputs": [
        {
          "internalType": "address",
          "name": "from",
          "type": "address"
        },
        {
          "internalType": "address",
          "name": "to",
          "type": "address"
        },
        {
          "internalType": "uint256",
          "name": "tokenId",
          "type": "uint256"
        }
      ],
      "name": "transferFrom",
      "outputs": [],
      "stateMutability": "nonpayable",
      "type": "function"
    },
    {
      "inputs": [
        {
          "internalType": "address",
          "name": "newOwner",
          "type": "address"
        }
      ],
      "name": "transferOwnership",
      "outputs": [],
      "stateMutability": "nonpayable",
      "type": "function"
    }
  ],
  "bytecode": "0x60806040523480156200001157600080fd5b50336040518060400160405280600e81526020017f536f6369616c4964656e746974790000000000000000000000000000000000008152506040518060400160405280600381526020017f5349440000000000000000000000000000000000000000000000000000000000815250816000908162000090919062000472565b508060019081620000a2919062000472565b505050600073ffffffffffffffffffffffffffffffffffffffff168173ffffffffffffffffffffffffffffffffffffffff16036200011a5760006040517f1e4fbdf70000000000000000000000000000000000000000000000000000000081526004016200011191906200059e565b60405180910390fd5b6200012b816200013260201b60201c565b50620005bb565b6000600660009054906101000a900473ffffffffffffffffffffffffffffffffffffffff16905081600660006101000a81548173ffffffffffffffffffffffffffffffffffffffff021916908373ffffffffffffffffffffffffffffffffffffffff1602179055508173ffffffffffffffffffffffffffffffffffffffff168173ffffffffffffffffffffffffffffffffffffffff167f8be0079c531659141344cd1fd0a4f28419497f9722a3daafe3b4186f6b6457e060405160405180910390a35050565b600081519050919050565b7f4e487b7100000000000000000000000000000000000000000000000000000000600052604160045260246000fd5b7f4e487b7100000000000000000000000000000000000000000000000000000000600052602260045260246000fd5b600060028204905060018216806200027a57607f821691505b60208210810362000290576200028f62000232565b5b50919050565b60008190508160005260206000209050919050565b60006020601f8301049050919050565b600082821b905092915050565b600060088302620002fa7fffffffffffffffffffffffffffffffffffffffffffffffffffffffffffffffff82620002bb565b620003068683620002bb565b95508019841693508086168417925050509392505050565b6000819050919050565b6000819050919050565b6000620003536200034d62000347846200031e565b62000328565b6200031e565b9050919050565b6000819050919050565b6200036f8362000332565b620003876200037e826200035a565b848454620002c8565b825550505050565b600090565b6200039e6200038f565b620003ab81848462000364565b505050565b5b81811015620003d357620003c760008262000394565b600181019050620003b1565b5050565b601f8211156200042257620003ec8162000296565b620003f784620002ab565b8101602085101562000407578190505b6200041f6200041685620002ab565b830182620003b0565b50505b505050565b600082821c905092915050565b6000620004476000198460080262000427565b1980831691505092915050565b600062000462838362000434565b9150826002028217905092915050565b6200047d82620001f8565b67ffffffffffffffff81111562000499576200049862000203565b5b620004a5825462000261565b620004b2828285620003d7565b600060209050601f831160018114620004ea5760008415620004d5578287015190505b620004e1858262000454565b86555062000551565b601f198416620004fa8662000296565b60005b828110156200052457848901518255600182019150602085019450602081019050620004fd565b8683101562000544578489015162000540601f89168262000434565b8355505b6001600288020188555050505b505050505050565b600073ffffffffffffffffffffffffffffffffffffffff82169050919050565b6000620005868262000559565b9050919050565b620005988162000579565b82525050565b6000602082019050620005b560008301846200058d565b92915050565b61226f80620005cb6000396000f3fe608060405234801561001057600080fd5b50600436106101165760003560e01c8063715018a6116100a2578063a22cb46511610071578063a22cb465146102f3578063b88d4fde1461030f578063c87b56dd1461032b578063e985e9c51461035b578063f2fde38b1461038b57610116565b8063715018a61461027d57806386f66622146102875780638da5cb5b146102b757806395d89b41146102d557610116565b806323b872dd116100e957806323b872dd146101b557806342842e0e146101d15780636352211e146101ed5780636511bf2e1461021d57806370a082311461024d57610116565b806301ffc9a71461011b57806306fdde031461014b578063081812fc14610169578063095ea7b314610199575b600080fd5b6101356004803603810190610130919061197b565b6103a7565b60405161014291906119c3565b60405180910390f35b610153610489565b6040516101609190611a6e565b60405180910390f35b610183600480360381019061017e9190611ac6565b61051b565b6040516101909190611b34565b60405180910390f35b6101b360048036038101906101ae9190611b7b565b610537565b005b6101cf60048036038101906101ca9190611bbb565b61054d565b005b6101eb60048036038101906101e69190611bbb565b610588565b005b61020760048036038101906102029190611ac6565b6105a8565b6040516102149190611b34565b60405180910390f35b61023760048036038101906102329190611c0e565b6105ba565b6040516102449190611c4a565b60405180910390f35b61026760048036038101906102629190611c0e565b6105d2565b6040516102749190611c4a565b60405180910390f35b61028561068c565b005b6102a1600480360381019061029c9190611c0e565b6106a0565b6040516102ae9190611c4a565b60405180910390f35b6102bf6107b5565b6040516102cc9190611b34565b60405180910390f35b6102dd6107df565b6040516102ea9190611a6e565b60405180910390f35b61030d60048036038101906103089190611c91565b610871565b005b61032960048036038101906103249190611e06565b610887565b005b61034560048036038101906103409190611ac6565b6108c2565b6040516103529190611a6e565b60405180910390f35b61037560048036038101906103709190611e89565b61092b565b60405161038291906119c3565b60405180910390f35b6103a560048036038101906103a09190611c0e565b6109bf565b005b60007f80ac58cd000000000000000000000000000000000000000000000000000000007bffffffffffffffffffffffffffffffffffffffffffffffffffffffff1916827bffffffffffffffffffffffffffffffffffffffffffffffffffffffff1916148061047257507f5b5e139f000000000000000000000000000000000000000000000000000000007bffffffffffffffffffffffffffffffffffffffffffffffffffffffff1916827bffffffffffffffffffffffffffffffffffffffffffffffffffffffff1916145b80610482575061048182610a45565b5b9050919050565b60606000805461049890611ef8565b80601f01602080910402602001604051908101604052809291908181526020018280546104c490611ef8565b80156105115780601f106104e657610100808354040283529160200191610511565b820191906000526020600020905b8154815290600101906020018083116104f457829003601f168201915b5050505050905090565b600061052682610aaf565b5061053082610b37565b9050919050565b6105498282610544610b74565b610b7c565b5050565b6040517f08c379a000000000000000000000000000000000000000000000000000000000815260040161057f90611f9b565b60405180910390fd5b6105a383838360405180602001604052806000815250610887565b505050565b60006105b382610aaf565b9050919050565b60086020528060005260406000206000915090505481565b60008073ffffffffffffffffffffffffffffffffffffffff168273ffffffffffffffffffffffffffffffffffffffff16036106455760006040517f89c62b6400000000000000000000000000000000000000000000000000000000815260040161063c9190611b34565b60405180910390fd5b600360008373ffffffffffffffffffffffffffffffffffffffff1673ffffffffffffffffffffffffffffffffffffffff168152602001908152602001600020549050919050565b610694610b8e565b61069e6000610c15565b565b60006106aa610b8e565b60006106b5836105d2565b146106f5576040517f08c379a00000000000000000000000000000000000000000000000000000000081526004016106ec90612007565b60405180910390fd5b60006007600081548092919061070a90612056565b91905055905061071a8382610cdb565b80600860008573ffffffffffffffffffffffffffffffffffffffff1673ffffffffffffffffffffffffffffffffffffffff168152602001908152602001600020819055508273ffffffffffffffffffffffffffffffffffffffff167faf62702571aa2959cc884d2d2f058f2dde9f91f8cb7b5a5c62887ec1aef856e7826040516107a49190611c4a565b60405180910390a280915050919050565b6000600660009054906101000a900473ffffffffffffffffffffffffffffffffffffffff16905090565b6060600180546107ee90611ef8565b80601f016020809104026020016040519081016040528092919081815260200182805461081a90611ef8565b80156108675780601f1061083c57610100808354040283529160200191610867565b820191906000526020600020905b81548152906001019060200180831161084a57829003601f168201915b5050505050905090565b61088361087c610b74565b8383610cf9565b5050565b6040517f08c379a00000000000000000000000000000000000000000000000000000000081526004016108b990611f9b565b60405180910390fd5b60606108cd82610aaf565b5060006108d8610e68565b905060008151116108f85760405180602001604052806000815250610923565b8061090284610e7f565b6040516020016109139291906120da565b6040516020818303038152906040525b915050919050565b6000600560008473ffffffffffffffffffffffffffffffffffffffff1673ffffffffffffffffffffffffffffffffffffffff16815260200190815260200160002060008373ffffffffffffffffffffffffffffffffffffffff1673ffffffffffffffffffffffffffffffffffffffff16815260200190815260200160002060009054906101000a900460ff16905092915050565b6109c7610b8e565b600073ffffffffffffffffffffffffffffffffffffffff168173ffffffffffffffffffffffffffffffffffffffff1603610a395760006040517f1e4fbdf7000000000000000000000000000000000000000000000000000000008152600401610a309190611b34565b60405180910390fd5b610a4281610c15565b50565b60007f01ffc9a7000000000000000000000000000000000000000000000000000000007bffffffffffffffffffffffffffffffffffffffffffffffffffffffff1916827bffffffffffffffffffffffffffffffffffffffffffffffffffffffff1916149050919050565b600080610abb83610f4d565b9050600073ffffffffffffffffffffffffffffffffffffffff168173ffffffffffffffffffffffffffffffffffffffff1603610b2e57826040517f7e273289000000000000000000000000000000000000000000000000000000008152600401610b259190611c4a565b60405180910390fd5b80915050919050565b60006004600083815260200190815260200160002060009054906101000a900473ffffffffffffffffffffffffffffffffffffffff169050919050565b600033905090565b610b898383836001610f8a565b505050565b610b96610b74565b73ffffffffffffffffffffffffffffffffffffffff16610bb46107b5565b73ffffffffffffffffffffffffffffffffffffffff1614610c1357610bd7610b74565b6040517f118cdaa7000000000000000000000000000000000000000000000000000000008152600401610c0a9190611b34565b60405180910390fd5b565b6000600660009054906101000a900473ffffffffffffffffffffffffffffffffffffffff16905081600660006101000a81548173ffffffffffffffffffffffffffffffffffffffff021916908373ffffffffffffffffffffffffffffffffffffffff1602179055508173ffffffffffffffffffffffffffffffffffffffff168173ffffffffffffffffffffffffffffffffffffffff167f8be0079c531659141344cd1fd0a4f28419497f9722a3daafe3b4186f6b6457e060405160405180910390a35050565b610cf582826040518060200160405280600081525061114f565b5050565b600073ffffffffffffffffffffffffffffffffffffffff168273ffffffffffffffffffffffffffffffffffffffff1603610d6a57816040517f5b08ba18000000000000000000000000000000000000000000000000000000008152600401610d619190611b34565b60405180910390fd5b80600560008573ffffffffffffffffffffffffffffffffffffffff1673ffffffffffffffffffffffffffffffffffffffff16815260200190815260200160002060008473ffffffffffffffffffffffffffffffffffffffff1673ffffffffffffffffffffffffffffffffffffffff16815260200190815260200160002060006101000a81548160ff0219169083151502179055508173ffffffffffffffffffffffffffffffffffffffff168373ffffffffffffffffffffffffffffffffffffffff167f17307eab39ab6107e8899845ad3d59bd9653f200f220920489ca2b5937696c3183604051610e5b91906119c3565b60405180910390a3505050565b606060405180602001604052806000815250905090565b606060006001610e8e84611173565b01905060008167ffffffffffffffff811115610ead57610eac611cdb565b5b6040519080825280601f01601f191660200182016040528015610edf5781602001600182028036833780820191505090505b509050600082602083010190505b600115610f42578080600190039150507f3031323334353637383961626364656600000000000000000000000000000000600a86061a8153600a8581610f3657610f356120fe565b5b04945060008503610eed575b819350505050919050565b60006002600083815260200190815260200160002060009054906101000a900473ffffffffffffffffffffffffffffffffffffffff169050919050565b8080610fc35750600073ffffffffffffffffffffffffffffffffffffffff168273ffffffffffffffffffffffffffffffffffffffff1614155b156110f7576000610fd384610aaf565b9050600073ffffffffffffffffffffffffffffffffffffffff168373ffffffffffffffffffffffffffffffffffffffff161415801561103e57508273ffffffffffffffffffffffffffffffffffffffff168173ffffffffffffffffffffffffffffffffffffffff1614155b8015611051575061104f818461092b565b155b1561109357826040517fa9fbf51f00000000000000000000000000000000000000000000000000000000815260040161108a9190611b34565b60405180910390fd5b81156110f557838573ffffffffffffffffffffffffffffffffffffffff168273ffffffffffffffffffffffffffffffffffffffff167f8c5be1e5ebec7d5bd14f71427d1e84f3dd0314c0f7b2291e5b200ac8c7c3b92560405160405180910390a45b505b836004600085815260200190815260200160002060006101000a81548173ffffffffffffffffffffffffffffffffffffffff021916908373ffffffffffffffffffffffffffffffffffffffff16021790555050505050565b61115983836112c6565b61116e611164610b74565b60008585856113bf565b505050565b600080600090507a184f03e93ff9f4daa797ed6e38ed64bf6a1f01000000000000000083106111d1577a184f03e93ff9f4daa797ed6e38ed64bf6a1f01000000000000000083816111c7576111c66120fe565b5b0492506040810190505b6d04ee2d6d415b85acef8100000000831061120e576d04ee2d6d415b85acef81000000008381611204576112036120fe565b5b0492506020810190505b662386f26fc10000831061123d57662386f26fc100008381611233576112326120fe565b5b0492506010810190505b6305f5e1008310611266576305f5e100838161125c5761125b6120fe565b5b0492506008810190505b612710831061128b576127108381611281576112806120fe565b5b0492506004810190505b606483106112ae57606483816112a4576112a36120fe565b5b0492506002810190505b600a83106112bd576001810190505b80915050919050565b600073ffffffffffffffffffffffffffffffffffffffff168273ffffffffffffffffffffffffffffffffffffffff16036113385760006040517f64a0ae9200000000000000000000000000000000000000000000000000000000815260040161132f9190611b34565b60405180910390fd5b600061134683836000611570565b9050600073ffffffffffffffffffffffffffffffffffffffff168173ffffffffffffffffffffffffffffffffffffffff16146113ba5760006040517f73c6ac6e0000000000000000000000000000000000000000000000000000000081526004016113b19190611b34565b60405180910390fd5b505050565b60008373ffffffffffffffffffffffffffffffffffffffff163b1115611569578273ffffffffffffffffffffffffffffffffffffffff1663150b7a02868685856040518563ffffffff1660e01b815260040161141e9493929190612182565b6020604051808303816000875af192505050801561145a57506040513d601f19601f8201168201806040525081019061145791906121e3565b60015b6114de573d806000811461148a576040519150601f19603f3d011682016040523d82523d6000602084013e61148f565b606091505b5060008151036114d657836040517f64a0ae920000000000000000000000000000000000000000000000000000000081526004016114cd9190611b34565b60405180910390fd5b805160208201fd5b63150b7a0260e01b7bffffffffffffffffffffffffffffffffffffffffffffffffffffffff1916817bffffffffffffffffffffffffffffffffffffffffffffffffffffffff19161461156757836040517f64a0ae9200000000000000000000000000000000000000000000000000000000815260040161155e9190611b34565b60405180910390fd5b505b5050505050565b60008061157c84610f4d565b9050600073ffffffffffffffffffffffffffffffffffffffff168373ffffffffffffffffffffffffffffffffffffffff16146115be576115bd81848661178a565b5b600073ffffffffffffffffffffffffffffffffffffffff168173ffffffffffffffffffffffffffffffffffffffff161461164f57611600600085600080610f8a565b6001600360008373ffffffffffffffffffffffffffffffffffffffff1673ffffffffffffffffffffffffffffffffffffffff168152602001908152602001600020600082825403925050819055505b600073ffffffffffffffffffffffffffffffffffffffff168573ffffffffffffffffffffffffffffffffffffffff16146116d2576001600360008773ffffffffffffffffffffffffffffffffffffffff1673ffffffffffffffffffffffffffffffffffffffff168152602001908152602001600020600082825401925050819055505b846002600086815260200190815260200160002060006101000a81548173ffffffffffffffffffffffffffffffffffffffff021916908373ffffffffffffffffffffffffffffffffffffffff160217905550838573ffffffffffffffffffffffffffffffffffffffff168273ffffffffffffffffffffffffffffffffffffffff167fddf252ad1be2c89b69c2b068fc378daa952ba7f163c4a11628f55a4df523b3ef60405160405180910390a4809150509392505050565b61179583838361184e565b61184957600073ffffffffffffffffffffffffffffffffffffffff168373ffffffffffffffffffffffffffffffffffffffff160361180a57806040517f7e2732890000000000000000000000000000000000000000000000000000000081526004016118019190611c4a565b60405180910390fd5b81816040517f177e802f000000000000000000000000000000000000000000000000000000008152600401611840929190612210565b60405180910390fd5b505050565b60008073ffffffffffffffffffffffffffffffffffffffff168373ffffffffffffffffffffffffffffffffffffffff161415801561190657508273ffffffffffffffffffffffffffffffffffffffff168473ffffffffffffffffffffffffffffffffffffffff1614806118c757506118c6848461092b565b5b8061190557508273ffffffffffffffffffffffffffffffffffffffff166118ed83610b37565b73ffffffffffffffffffffffffffffffffffffffff16145b5b90509392505050565b6000604051905090565b600080fd5b600080fd5b60007fffffffff0000000000000000000000000000000000000000000000000000000082169050919050565b61195881611923565b811461196357600080fd5b50565b6000813590506119758161194f565b92915050565b60006020828403121561199157611990611919565b5b600061199f84828501611966565b91505092915050565b60008115159050919050565b6119bd816119a8565b82525050565b60006020820190506119d860008301846119b4565b92915050565b600081519050919050565b600082825260208201905092915050565b60005b83811015611a185780820151818401526020810190506119fd565b60008484015250505050565b6000601f19601f8301169050919050565b6000611a40826119de565b611a4a81856119e9565b9350611a5a8185602086016119fa565b611a6381611a24565b840191505092915050565b60006020820190508181036000830152611a888184611a35565b905092915050565b6000819050919050565b611aa381611a90565b8114611aae57600080fd5b50565b600081359050611ac081611a9a565b92915050565b600060208284031215611adc57611adb611919565b5b6000611aea84828501611ab1565b91505092915050565b600073ffffffffffffffffffffffffffffffffffffffff82169050919050565b6000611b1e82611af3565b9050919050565b611b2e81611b13565b82525050565b6000602082019050611b496000830184611b25565b92915050565b611b5881611b13565b8114611b6357600080fd5b50565b600081359050611b7581611b4f565b92915050565b60008060408385031215611b9257611b91611919565b5b6000611ba085828601611b66565b9250506020611bb185828601611ab1565b9150509250929050565b600080600060608486031215611bd457611bd3611919565b5b6000611be286828701611b66565b9350506020611bf386828701611b66565b9250506040611c0486828701611ab1565b9150509250925092565b600060208284031215611c2457611c23611919565b5b6000611c3284828501611b66565b91505092915050565b611c4481611a90565b82525050565b6000602082019050611c5f6000830184611c3b565b92915050565b611c6e816119a8565b8114611c7957600080fd5b50565b600081359050611c8b81611c65565b92915050565b60008060408385031215611ca857611ca7611919565b5b6000611cb685828601611b66565b9250506020611cc785828601611c7c565b9150509250929050565b600080fd5b600080fd5b7f4e487b7100000000000000000000000000000000000000000000000000000000600052604160045260246000fd5b611d1382611a24565b810181811067ffffffffffffffff82111715611d3257611d31611cdb565b5b80604052505050565b6000611d4561190f565b9050611d518282611d0a565b919050565b600067ffffffffffffffff821115611d7157611d70611cdb565b5b611d7a82611a24565b9050602081019050919050565b82818337600083830152505050565b6000611da9611da484611d56565b611d3b565b905082815260208101848484011115611dc557611dc4611cd6565b5b611dd0848285611d87565b509392505050565b600082601f830112611ded57611dec611cd1565b5b8135611dfd848260208601611d96565b91505092915050565b60008060008060808587031215611e2057611e1f611919565b5b6000611e2e87828801611b66565b9450506020611e3f87828801611b66565b9350506040611e5087828801611ab1565b925050606085013567ffffffffffffffff811115611e7157611e7061191e565b5b611e7d87828801611dd8565b91505092959194509250565b60008060408385031215611ea057611e9f611919565b5b6000611eae85828601611b66565b9250506020611ebf85828601611b66565b9150509250929050565b7f4e487b7100000000000000000000000000000000000000000000000000000000600052602260045260246000fd5b60006002820490506001821680611f1057607f821691505b602082108103611f2357611f22611ec9565b5b50919050565b7f5472616e736665727320617265206e6f7420616c6c6f77656420666f7220536f60008201527f756c626f756e6420746f6b656e73000000000000000000000000000000000000602082015250565b6000611f85602e836119e9565b9150611f9082611f29565b604082019050919050565b60006020820190508181036000830152611fb481611f78565b9050919050565b7f4964656e7469747920616c726561647920657869737473000000000000000000600082015250565b6000611ff16017836119e9565b9150611ffc82611fbb565b602082019050919050565b6000602082019050818103600083015261202081611fe4565b9050919050565b7f4e487b7100000000000000000000000000000000000000000000000000000000600052601160045260246000fd5b600061206182611a90565b91507fffffffffffffffffffffffffffffffffffffffffffffffffffffffffffffffff820361209357612092612027565b5b600182019050919050565b600081905092915050565b60006120b4826119de565b6120be818561209e565b93506120ce8185602086016119fa565b80840191505092915050565b60006120e682856120a9565b91506120f282846120a9565b91508190509392505050565b7f4e487b7100000000000000000000000000000000000000000000000000000000600052601260045260246000fd5b600081519050919050565b600082825260208201905092915050565b60006121548261212d565b61215e8185612138565b935061216e8185602086016119fa565b61217781611a24565b840191505092915050565b60006080820190506121976000830187611b25565b6121a46020830186611b25565b6121b16040830185611c3b565b81810360608301526121c38184612149565b905095945050505050565b6000815190506121dd8161194f565b92915050565b6000602082840312156121f9576121f8611919565b5b6000612207848285016121ce565b91505092915050565b60006040820190506122256000830185611b25565b6122326020830184611c3b565b939250505056fea264697066735822122083b7022021fac21b37d2a2f739049a74722db1f505449b63f78161f075a9fe9e64736f6c63430008180033",
  "linkReferences": {},
  "deployedLinkReferences": {}
}