{
  "_format": "hh-sol-artifact-1",
  "contractName": "SustainabilityTreasury",
  "sourceName": "contracts/SustainabilityTreasury.sol",
  "abi": [
    {
      "inputs": [],
      "stateMutability": "nonpayable",
      "type": "constructor"
    },
    {
      "inputs": [
        {
          "internalType": "address",
          "name": "owner",
          "type": "address"
        }
      ],
      "name": "OwnableInvalidOwner",
      "type": "error"
    },
    {
      "inputs": [
        {
          "internalType": "address",
          "name": "account",
          "type": "address"
        }
      ],
      "name": "OwnableUnauthorizedAccount",
      "type": "error"
    },
    {
      "anonymous": false,
      "inputs": [
        {
          "indexed": true,
          "internalType": "uint256",
          "name": "id",
          "type": "uint256"
        },
        {
          "indexed": true,
          "internalType": "address",
          "name": "developer",
          "type": "address"
        },
        {
          "indexed": false,
          "internalType": "uint256",
          "name": "amount",
          "type": "uint256"
        }
      ],
      "name": "BountyClaimed",
      "type": "event"
    },
    {
      "anonymous": false,
      "inputs": [
        {
          "indexed": true,
          "internalType": "uint256",
          "name": "id",
          "type": "uint256"
        },
        {
          "indexed": false,
          "internalType": "uint256",
          "name": "amount",
          "type": "uint256"
        }
      ],
      "name": "BountyCreated",
      "type": "event"
    },
    {
      "anonymous": false,
      "inputs": [
        {
          "indexed": false,
          "internalType": "uint256",
          "name": "totalAmount",
          "type": "uint256"
        },
        {
          "indexed": false,
          "internalType": "uint256",
          "name": "maintenanceCut",
          "type": "uint256"
        }
      ],
      "name": "FundsReceived",
      "type": "event"
    },
    {
      "anonymous": false,
      "inputs": [
        {
          "indexed": true,
          "internalType": "address",
          "name": "previousOwner",
          "type": "address"
        },
        {
          "indexed": true,
          "internalType": "address",
          "name": "newOwner",
          "type": "address"
        }
      ],
      "name": "OwnershipTransferred",
      "type": "event"
    },
    {
      "inputs": [],
      "name": "MAINTENANCE_FEE_BPS",
      "outputs": [
        {
          "internalType": "uint256",
          "name": "",
          "type": "uint256"
        }
      ],
      "stateMutability": "view",
      "type": "function"
    },
    {
      "inputs": [
        {
          "internalType": "uint256",
          "name": "",
          "type": "uint256"
        }
      ],
      "name": "bounties",
      "outputs": [
        {
          "internalType": "uint256",
          "name": "amount",
          "type": "uint256"
        },
        {
          "internalType": "bool",
          "name": "active",
          "type": "bool"
        },
        {
          "internalType": "address",
          "name": "verifiedDev",
          "type": "address"
        }
      ],
      "stateMutability": "view",
      "type": "function"
    },
    {
      "inputs": [
        {
          "internalType": "uint256",
          "name": "amount",
          "type": "uint256"
        }
      ],
      "name": "createBounty",
      "outputs": [],
      "stateMutability": "nonpayable",
      "type": "function"
    },
    {
      "inputs": [],
      "name": "nextBountyId",
      "outputs": [
        {
          "internalType": "uint256",
          "name": "",
          "type": "uint256"
        }
      ],
      "stateMutability": "view",
      "type": "function"
    },
    {
      "inputs": [],
      "name": "owner",
      "outputs": [
        {
          "internalType": "address",
          "name": "",
          "type": "address"
        }
      ],
      "stateMutability": "view",
      "type": "function"
    },
    {
      "inputs": [],
      "name": "processRevenue",
      "outputs": [],
      "stateMutability": "payable",
      "type": "function"
    },
    {
      "inputs": [],
      "name": "renounceOwnership",
      "outputs": [],
      "stateMutability": "nonpayable",
      "type": "function"
    },
    {
      "inputs": [],
      "name": "totalMaintenanceFunds",
      "outputs": [
        {
          "internalType": "uint256",
          "name": "",
          "type": "uint256"
        }
      ],
      "stateMutability": "view",
      "type": "function"
    },
    {
      "inputs": [
        {
          "internalType": "address",
          "name": "newOwner",
          "type": "address"
        }
      ],
      "name": "transferOwnership",
      "outputs": [],
      "stateMutability": "nonpayable",
      "type": "function"
    },
    {
      "inputs": [
        {
          "internalType": "uint256",
          "name": "id",
          "type": "uint256"
        },
        {
          "internalType": "address",
          "name": "developer",
          "type": "address"
        }
      ],
      "name": "triggerBountyPayout",
      "outputs": [],
      "stateMutability": "nonpayable",
      "type": "function"
    },
    {
      "stateMutability": "payable",
      "type": "receive"
    }
  ],
  "bytecode": "0x608060405234801561001057600080fd5b5033600073ffffffffffffffffffffffffffffffffffffffff168173ffffffffffffffffffffffffffffffffffffffff16036100845760006040517f1e4fbdf700000000000000000000000000000000000000000000000000000000815260040161007b919061019e565b60405180910390fd5b6100938161009960201b60201c565b506101b9565b60008060009054906101000a900473ffffffffffffffffffffffffffffffffffffffff169050816000806101000a81548173ffffffffffffffffffffffffffffffffffffffff021916908373ffffffffffffffffffffffffffffffffffffffff1602179055508173ffffffffffffffffffffffffffffffffffffffff168173ffffffffffffffffffffffffffffffffffffffff167f8be0079c531659141344cd1fd0a4f28419497f9722a3daafe3b4186f6b6457e060405160405180910390a35050565b600073ffffffffffffffffffffffffffffffffffffffff82169050919050565b60006101888261015d565b9050919050565b6101988161017d565b82525050565b60006020820190506101b3600083018461018f565b92915050565b610cbf806101c86000396000f3fe6080604052600436106100955760003560e01c8063afdad33511610059578063afdad33514610159578063dc2f874414610184578063f2fde38b146101c3578063fb8879ef146101ec578063fd14fad414610215576100b4565b80631eb624a9146100b957806327500652146100c35780633f28e9fb146100ee578063715018a6146101175780638da5cb5b1461012e576100b4565b366100b45734600160008282546100ac9190610856565b925050819055005b600080fd5b6100c1610240565b005b3480156100cf57600080fd5b506100d86102b3565b6040516100e59190610899565b60405180910390f35b3480156100fa57600080fd5b50610115600480360381019061011091906108e5565b6102b9565b005b34801561012357600080fd5b5061012c610432565b005b34801561013a57600080fd5b50610143610446565b6040516101509190610953565b60405180910390f35b34801561016557600080fd5b5061016e61046f565b60405161017b9190610899565b60405180910390f35b34801561019057600080fd5b506101ab60048036038101906101a691906108e5565b610474565b6040516101ba93929190610989565b60405180910390f35b3480156101cf57600080fd5b506101ea60048036038101906101e591906109ec565b6104cb565b005b3480156101f857600080fd5b50610213600480360381019061020e9190610a19565b610551565b005b34801561022157600080fd5b5061022a6106c4565b6040516102379190610899565b60405180910390f35b60006127106032346102529190610a59565b61025c9190610aca565b905080600160008282546102709190610856565b925050819055507f063d07ee72a7483b8e07ca09054bb686775c5c030f945dde3823a5257a0a93eb34826040516102a8929190610afb565b60405180910390a150565b60015481565b6102c16106ca565b806001541015610306576040517f08c379a00000000000000000000000000000000000000000000000000000000081526004016102fd90610b81565b60405180910390fd5b60006003600081548092919061031b90610ba1565b9190505590506040518060600160405280838152602001600115158152602001600073ffffffffffffffffffffffffffffffffffffffff16815250600260008381526020019081526020016000206000820151816000015560208201518160010160006101000a81548160ff02191690831515021790555060408201518160010160016101000a81548173ffffffffffffffffffffffffffffffffffffffff021916908373ffffffffffffffffffffffffffffffffffffffff16021790555090505081600160008282546103ef9190610be9565b92505081905550807ff46f8eab4b89b16c93a68625462ed677086e581a321c1cbed51675427ddb6a78836040516104269190610899565b60405180910390a25050565b61043a6106ca565b6104446000610751565b565b60008060009054906101000a900473ffffffffffffffffffffffffffffffffffffffff16905090565b603281565b60026020528060005260406000206000915090508060000154908060010160009054906101000a900460ff16908060010160019054906101000a900473ffffffffffffffffffffffffffffffffffffffff16905083565b6104d36106ca565b600073ffffffffffffffffffffffffffffffffffffffff168173ffffffffffffffffffffffffffffffffffffffff16036105455760006040517f1e4fbdf700000000000000000000000000000000000000000000000000000000815260040161053c9190610953565b60405180910390fd5b61054e81610751565b50565b6105596106ca565b60006002600084815260200190815260200160002090508060010160009054906101000a900460ff166105c1576040517f08c379a00000000000000000000000000000000000000000000000000000000081526004016105b890610c69565b60405180910390fd5b60008160010160006101000a81548160ff021916908315150217905550818160010160016101000a81548173ffffffffffffffffffffffffffffffffffffffff021916908373ffffffffffffffffffffffffffffffffffffffff1602179055508173ffffffffffffffffffffffffffffffffffffffff166108fc82600001549081150290604051600060405180830381858888f1935050505015801561066b573d6000803e3d6000fd5b508173ffffffffffffffffffffffffffffffffffffffff16837f23c972d46b3251ae358ad69fb3761ef8f5c38c5131502ed9e9bde9b129da921583600001546040516106b79190610899565b60405180910390a3505050565b60035481565b6106d2610815565b73ffffffffffffffffffffffffffffffffffffffff166106f0610446565b73ffffffffffffffffffffffffffffffffffffffff161461074f57610713610815565b6040517f118cdaa70000000000000000000000000000000000000000000000000000000081526004016107469190610953565b60405180910390fd5b565b60008060009054906101000a900473ffffffffffffffffffffffffffffffffffffffff169050816000806101000a81548173ffffffffffffffffffffffffffffffffffffffff021916908373ffffffffffffffffffffffffffffffffffffffff1602179055508173ffffffffffffffffffffffffffffffffffffffff168173ffffffffffffffffffffffffffffffffffffffff167f8be0079c531659141344cd1fd0a4f28419497f9722a3daafe3b4186f6b6457e060405160405180910390a35050565b600033905090565b6000819050919050565b7f4e487b7100000000000000000000000000000000000000000000000000000000600052601160045260246000fd5b60006108618261081d565b915061086c8361081d565b925082820190508082111561088457610883610827565b5b92915050565b6108938161081d565b82525050565b60006020820190506108ae600083018461088a565b92915050565b600080fd5b6108c28161081d565b81146108cd57600080fd5b50565b6000813590506108df816108b9565b92915050565b6000602082840312156108fb576108fa6108b4565b5b6000610909848285016108d0565b91505092915050565b600073ffffffffffffffffffffffffffffffffffffffff82169050919050565b600061093d82610912565b9050919050565b61094d81610932565b82525050565b60006020820190506109686000830184610944565b92915050565b60008115159050919050565b6109838161096e565b82525050565b600060608201905061099e600083018661088a565b6109ab602083018561097a565b6109b86040830184610944565b949350505050565b6109c981610932565b81146109d457600080fd5b50565b6000813590506109e6816109c0565b92915050565b600060208284031215610a0257610a016108b4565b5b6000610a10848285016109d7565b91505092915050565b60008060408385031215610a3057610a2f6108b4565b5b6000610a3e858286016108d0565b9250506020610a4f858286016109d7565b9150509250929050565b6000610a648261081d565b9150610a6f8361081d565b9250828202610a7d8161081d565b91508282048414831517610a9457610a93610827565b5b5092915050565b7f4e487b7100000000000000000000000000000000000000000000000000000000600052601260045260246000fd5b6000610ad58261081d565b9150610ae08361081d565b925082610af057610aef610a9b565b5b828204905092915050565b6000604082019050610b10600083018561088a565b610b1d602083018461088a565b9392505050565b600082825260208201905092915050565b7f496e73756666696369656e742074726561737572792066756e64730000000000600082015250565b6000610b6b601b83610b24565b9150610b7682610b35565b602082019050919050565b60006020820190508181036000830152610b9a81610b5e565b9050919050565b6000610bac8261081d565b91507fffffffffffffffffffffffffffffffffffffffffffffffffffffffffffffffff8203610bde57610bdd610827565b5b600182019050919050565b6000610bf48261081d565b9150610bff8361081d565b9250828203905081811115610c1757610c16610827565b5b92915050565b7f426f756e7479206e6f7420616374697665000000000000000000000000000000600082015250565b6000610c53601183610b24565b9150610c5e82610c1d565b602082019050919050565b60006020820190508181036000830152610c8281610c46565b905091905056fea2646970667358221220bce36dc72bfdecd7077c71d72cb22ad88db037f97fd91e1fcfb64eb75892ac2764736f6c63430008180033",
  "linkReferences": {},
  "deployedLinkReferences": {}
}