{
  "_format": "hh-sol-artifact-1",
  "contractName": "ProvingHubVerifier",
  "sourceName": "contracts/ProvingHubVerifier.sol",
  "abi": [
    {
      "inputs": [],
      "stateMutability": "nonpayable",
      "type": "constructor"
    },
    {
      "inputs": [
        {
          "internalType": "address",
          "name": "owner",
          "type": "address"
        }
      ],
      "name": "OwnableInvalidOwner",
      "type": "error"
    },
    {
      "inputs": [
        {
          "internalType": "address",
          "name": "account",
          "type": "address"
        }
      ],
      "name": "OwnableUnauthorizedAccount",
      "type": "error"
    },
    {
      "anonymous": false,
      "inputs": [
        {
          "indexed": true,
          "internalType": "address",
          "name": "phone",
          "type": "address"
        },
        {
          "indexed": false,
          "internalType": "bytes32",
          "name": "commitment",
          "type": "bytes32"
        }
      ],
      "name": "CommitmentSubmitted",
      "type": "event"
    },
    {
      "anonymous": false,
      "inputs": [
        {
          "indexed": true,
          "internalType": "address",
          "name": "previousOwner",
          "type": "address"
        },
        {
          "indexed": true,
          "internalType": "address",
          "name": "newOwner",
          "type": "address"
        }
      ],
      "name": "OwnershipTransferred",
      "type": "event"
    },
    {
      "anonymous": false,
      "inputs": [
        {
          "indexed": true,
          "internalType": "bytes32",
          "name": "commitment",
          "type": "bytes32"
        },
        {
          "indexed": true,
          "internalType": "address",
          "name": "hub",
          "type": "address"
        }
      ],
      "name": "ProofVerified",
      "type": "event"
    },
    {
      "inputs": [
        {
          "internalType": "address",
          "name": "hub",
          "type": "address"
        },
        {
          "internalType": "bool",
          "name": "status",
          "type": "bool"
        }
      ],
      "name": "authorizeHub",
      "outputs": [],
      "stateMutability": "nonpayable",
      "type": "function"
    },
    {
      "inputs": [
        {
          "internalType": "address",
          "name": "",
          "type": "address"
        }
      ],
      "name": "authorizedHubs",
      "outputs": [
        {
          "internalType": "bool",
          "name": "",
          "type": "bool"
        }
      ],
      "stateMutability": "view",
      "type": "function"
    },
    {
      "inputs": [],
      "name": "owner",
      "outputs": [
        {
          "internalType": "address",
          "name": "",
          "type": "address"
        }
      ],
      "stateMutability": "view",
      "type": "function"
    },
    {
      "inputs": [],
      "name": "renounceOwnership",
      "outputs": [],
      "stateMutability": "nonpayable",
      "type": "function"
    },
    {
      "inputs": [
        {
          "internalType": "bytes32",
          "name": "commitment",
          "type": "bytes32"
        }
      ],
      "name": "submitCommitment",
      "outputs": [],
      "stateMutability": "nonpayable",
      "type": "function"
    },
    {
      "inputs": [
        {
          "internalType": "address",
          "name": "newOwner",
          "type": "address"
        }
      ],
      "name": "transferOwnership",
      "outputs": [],
      "stateMutability": "nonpayable",
      "type": "function"
    },
    {
      "inputs": [
        {
          "internalType": "bytes32",
          "name": "",
          "type": "bytes32"
        }
      ],
      "name": "verifiedCommitments",
      "outputs": [
        {
          "internalType": "bool",
          "name": "",
          "type": "bool"
        }
      ],
      "stateMutability": "view",
      "type": "function"
    },
    {
      "inputs": [
        {
          "internalType": "bytes32",
          "name": "commitment",
          "type": "bytes32"
        },
        {
          "internalType": "bytes",
          "name": "proof",
          "type": "bytes"
        }
      ],
      "name": "verifyByHub",
      "outputs": [],
      "stateMutability": "nonpayable",
      "type": "function"
    }
  ],
  "bytecode": "0x608060405234801561001057600080fd5b5033600073ffffffffffffffffffffffffffffffffffffffff168173ffffffffffffffffffffffffffffffffffffffff16036100845760006040517f1e4fbdf700000000000000000000000000000000000000000000000000000000815260040161007b91906101f5565b60405180910390fd5b610093816100f060201b60201c565b5060018060003373ffffffffffffffffffffffffffffffffffffffff1673ffffffffffffffffffffffffffffffffffffffff16815260200190815260200160002060006101000a81548160ff021916908315150217905550610210565b60008060009054906101000a900473ffffffffffffffffffffffffffffffffffffffff169050816000806101000a81548173ffffffffffffffffffffffffffffffffffffffff021916908373ffffffffffffffffffffffffffffffffffffffff1602179055508173ffffffffffffffffffffffffffffffffffffffff168173ffffffffffffffffffffffffffffffffffffffff167f8be0079c531659141344cd1fd0a4f28419497f9722a3daafe3b4186f6b6457e060405160405180910390a35050565b600073ffffffffffffffffffffffffffffffffffffffff82169050919050565b60006101df826101b4565b9050919050565b6101ef816101d4565b82525050565b600060208201905061020a60008301846101e6565b92915050565b6108f68061021f6000396000f3fe608060405234801561001057600080fd5b50600436106100885760003560e01c80639e67ab1e1161005b5780639e67ab1e14610101578063b69c4c0514610131578063cd08d3821461014d578063f2fde38b1461016957610088565b8063346408391461008d57806353f3eb8f146100bd578063715018a6146100d95780638da5cb5b146100e3575b600080fd5b6100a760048036038101906100a291906105f8565b610185565b6040516100b49190610640565b60405180910390f35b6100d760048036038101906100d29190610691565b6101a5565b005b6100e16101f6565b005b6100eb61020a565b6040516100f891906106cd565b60405180910390f35b61011b60048036038101906101169190610691565b610233565b6040516101289190610640565b60405180910390f35b61014b60048036038101906101469190610714565b610253565b005b610167600480360381019061016291906107b9565b6102b6565b005b610183600480360381019061017e91906105f8565b6103b7565b005b60016020528060005260406000206000915054906101000a900460ff1681565b3373ffffffffffffffffffffffffffffffffffffffff167fab04abcbdf301b2cedb4d47c23eac5617749881ecc51c8886bdb3ce3f2038a5f826040516101eb9190610828565b60405180910390a250565b6101fe61043d565b61020860006104c4565b565b60008060009054906101000a900473ffffffffffffffffffffffffffffffffffffffff16905090565b60026020528060005260406000206000915054906101000a900460ff1681565b61025b61043d565b80600160008473ffffffffffffffffffffffffffffffffffffffff1673ffffffffffffffffffffffffffffffffffffffff16815260200190815260200160002060006101000a81548160ff0219169083151502179055505050565b600160003373ffffffffffffffffffffffffffffffffffffffff1673ffffffffffffffffffffffffffffffffffffffff16815260200190815260200160002060009054906101000a900460ff16610342576040517f08c379a0000000000000000000000000000000000000000000000000000000008152600401610339906108a0565b60405180910390fd5b60016002600085815260200190815260200160002060006101000a81548160ff0219169083151502179055503373ffffffffffffffffffffffffffffffffffffffff16837f60d9367e24cc6f7fa9630b6542cd57edc20576d1a1169ff87a9eb34680a56acf60405160405180910390a3505050565b6103bf61043d565b600073ffffffffffffffffffffffffffffffffffffffff168173ffffffffffffffffffffffffffffffffffffffff16036104315760006040517f1e4fbdf700000000000000000000000000000000000000000000000000000000815260040161042891906106cd565b60405180910390fd5b61043a816104c4565b50565b610445610588565b73ffffffffffffffffffffffffffffffffffffffff1661046361020a565b73ffffffffffffffffffffffffffffffffffffffff16146104c257610486610588565b6040517f118cdaa70000000000000000000000000000000000000000000000000000000081526004016104b991906106cd565b60405180910390fd5b565b60008060009054906101000a900473ffffffffffffffffffffffffffffffffffffffff169050816000806101000a81548173ffffffffffffffffffffffffffffffffffffffff021916908373ffffffffffffffffffffffffffffffffffffffff1602179055508173ffffffffffffffffffffffffffffffffffffffff168173ffffffffffffffffffffffffffffffffffffffff167f8be0079c531659141344cd1fd0a4f28419497f9722a3daafe3b4186f6b6457e060405160405180910390a35050565b600033905090565b600080fd5b600080fd5b600073ffffffffffffffffffffffffffffffffffffffff82169050919050565b60006105c58261059a565b9050919050565b6105d5816105ba565b81146105e057600080fd5b50565b6000813590506105f2816105cc565b92915050565b60006020828403121561060e5761060d610590565b5b600061061c848285016105e3565b91505092915050565b60008115159050919050565b61063a81610625565b82525050565b60006020820190506106556000830184610631565b92915050565b6000819050919050565b61066e8161065b565b811461067957600080fd5b50565b60008135905061068b81610665565b92915050565b6000602082840312156106a7576106a6610590565b5b60006106b58482850161067c565b91505092915050565b6106c7816105ba565b82525050565b60006020820190506106e260008301846106be565b92915050565b6106f181610625565b81146106fc57600080fd5b50565b60008135905061070e816106e8565b92915050565b6000806040838503121561072b5761072a610590565b5b6000610739858286016105e3565b925050602061074a858286016106ff565b9150509250929050565b600080fd5b600080fd5b600080fd5b60008083601f84011261077957610778610754565b5b8235905067ffffffffffffffff81111561079657610795610759565b5b6020830191508360018202830111156107b2576107b161075e565b5b9250929050565b6000806000604084860312156107d2576107d1610590565b5b60006107e08682870161067c565b935050602084013567ffffffffffffffff81111561080157610800610595565b5b61080d86828701610763565b92509250509250925092565b6108228161065b565b82525050565b600060208201905061083d6000830184610819565b92915050565b600082825260208201905092915050565b7f4e6f7420616e20617574686f72697a65642050726f76696e6720487562000000600082015250565b600061088a601d83610843565b915061089582610854565b602082019050919050565b600060208201905081810360008301526108b98161087d565b905091905056fea2646970667358221220548b859245be02d7794f9674d8b6b71097c6b8c357547bfc802f0d370a29e31064736f6c63430008180033",
  "linkReferences": {},
  "deployedLinkReferences": {}
}