{
  "_format": "hh-sol-artifact-1",
  "contractName": "AuditManager",
  "sourceName": "contracts/AuditManager.sol",
  "abi": [
    {
      "inputs": [
        {
          "internalType": "address",
          "name": "_reputationToken",
          "type": "address"
        }
      ],
      "stateMutability": "nonpayable",
      "type": "constructor"
    },
    {
      "inputs": [
        {
          "internalType": "address",
          "name": "owner",
          "type": "address"
        }
      ],
      "name": "OwnableInvalidOwner",
      "type": "error"
    },
    {
      "inputs": [
        {
          "internalType": "address",
          "name": "account",
          "type": "address"
        }
      ],
      "name": "OwnableUnauthorizedAccount",
      "type": "error"
    },
    {
      "anonymous": false,
      "inputs": [
        {
          "indexed": true,
          "internalType": "address",
          "name": "previousOwner",
          "type": "address"
        },
        {
          "indexed": true,
          "internalType": "address",
          "name": "newOwner",
          "type": "address"
        }
      ],
      "name": "OwnershipTransferred",
      "type": "event"
    },
    {
      "anonymous": false,
      "inputs": [
        {
          "indexed": true,
          "internalType": "uint256",
          "name": "id",
          "type": "uint256"
        },
        {
          "indexed": false,
          "internalType": "bytes32",
          "name": "contentHash",
          "type": "bytes32"
        }
      ],
      "name": "ReceiptSubmitted",
      "type": "event"
    },
    {
      "anonymous": false,
      "inputs": [
        {
          "indexed": true,
          "internalType": "uint256",
          "name": "id",
          "type": "uint256"
        },
        {
          "indexed": true,
          "internalType": "address",
          "name": "validator",
          "type": "address"
        }
      ],
      "name": "TrapdoorTriggered",
      "type": "event"
    },
    {
      "anonymous": false,
      "inputs": [
        {
          "indexed": true,
          "internalType": "address",
          "name": "validator",
          "type": "address"
        },
        {
          "indexed": false,
          "internalType": "uint256",
          "name": "amount",
          "type": "uint256"
        }
      ],
      "name": "ValidatorRewarded",
      "type": "event"
    },
    {
      "anonymous": false,
      "inputs": [
        {
          "indexed": true,
          "internalType": "address",
          "name": "validator",
          "type": "address"
        },
        {
          "indexed": false,
          "internalType": "uint256",
          "name": "amount",
          "type": "uint256"
        }
      ],
      "name": "ValidatorSlashed",
      "type": "event"
    },
    {
      "anonymous": false,
      "inputs": [
        {
          "indexed": true,
          "internalType": "uint256",
          "name": "id",
          "type": "uint256"
        },
        {
          "indexed": true,
          "internalType": "address",
          "name": "validator",
          "type": "address"
        },
        {
          "indexed": false,
          "internalType": "bool",
          "name": "approve",
          "type": "bool"
        }
      ],
      "name": "VoteCast",
      "type": "event"
    },
    {
      "inputs": [
        {
          "internalType": "uint256",
          "name": "",
          "type": "uint256"
        },
        {
          "internalType": "address",
          "name": "",
          "type": "address"
        }
      ],
      "name": "hasVoted",
      "outputs": [
        {
          "internalType": "bool",
          "name": "",
          "type": "bool"
        }
      ],
      "stateMutability": "view",
      "type": "function"
    },
    {
      "inputs": [],
      "name": "nextReceiptId",
      "outputs": [
        {
          "internalType": "uint256",
          "name": "",
          "type": "uint256"
        }
      ],
      "stateMutability": "view",
      "type": "function"
    },
    {
      "inputs": [],
      "name": "owner",
      "outputs": [
        {
          "internalType": "address",
          "name": "",
          "type": "address"
        }
      ],
      "stateMutability": "view",
      "type": "function"
    },
    {
      "inputs": [
        {
          "internalType": "uint256",
          "name": "",
          "type": "uint256"
        }
      ],
      "name": "receipts",
      "outputs": [
        {
          "internalType": "uint256",
          "name": "id",
          "type": "uint256"
        },
        {
          "internalType": "bytes32",
          "name": "contentHash",
          "type": "bytes32"
        },
        {
          "internalType": "address",
          "name": "submitter",
          "type": "address"
        },
        {
          "internalType": "bool",
          "name": "isTrapdoor",
          "type": "bool"
        },
        {
          "internalType": "bool",
          "name": "active",
          "type": "bool"
        },
        {
          "internalType": "uint256",
          "name": "approvals",
          "type": "uint256"
        },
        {
          "internalType": "uint256",
          "name": "rejections",
          "type": "uint256"
        }
      ],
      "stateMutability": "view",
      "type": "function"
    },
    {
      "inputs": [
        {
          "internalType": "uint256",
          "name": "stakeAmount",
          "type": "uint256"
        }
      ],
      "name": "registerValidator",
      "outputs": [],
      "stateMutability": "nonpayable",
      "type": "function"
    },
    {
      "inputs": [],
      "name": "renounceOwnership",
      "outputs": [],
      "stateMutability": "nonpayable",
      "type": "function"
    },
    {
      "inputs": [],
      "name": "reputationToken",
      "outputs": [
        {
          "internalType": "contract ReputationToken",
          "name": "",
          "type": "address"
        }
      ],
      "stateMutability": "view",
      "type": "function"
    },
    {
      "inputs": [
        {
          "internalType": "bytes32",
          "name": "_hash",
          "type": "bytes32"
        },
        {
          "internalType": "bool",
          "name": "_isTrapdoor",
          "type": "bool"
        }
      ],
      "name": "submitReceipt",
      "outputs": [],
      "stateMutability": "nonpayable",
      "type": "function"
    },
    {
      "inputs": [
        {
          "internalType": "address",
          "name": "newOwner",
          "type": "address"
        }
      ],
      "name": "transferOwnership",
      "outputs": [],
      "stateMutability": "nonpayable",
      "type": "function"
    },
    {
      "inputs": [
        {
          "internalType": "address",
          "name": "",
          "type": "address"
        }
      ],
      "name": "validators",
      "outputs": [
        {
          "internalType": "bool",
          "name": "isActive",
          "type": "bool"
        },
        {
          "internalType": "uint256",
          "name": "stakedReputation",
          "type": "uint256"
        }
      ],
      "stateMutability": "view",
      "type": "function"
    },
    {
      "inputs": [
        {
          "internalType": "uint256",
          "name": "_receiptId",
          "type": "uint256"
        },
        {
          "internalType": "bool",
          "name": "_isValid",
          "type": "bool"
        }
      ],
      "name": "vote",
      "outputs": [],
      "stateMutability": "nonpayable",
      "type": "function"
    }
  ],
  "bytecode": "0x60806040523480156200001157600080fd5b506040516200195a3803806200195a833981810160405281019062000037919062000235565b33600073ffffffffffffffffffffffffffffffffffffffff168173ffffffffffffffffffffffffffffffffffffffff1603620000ad5760006040517f1e4fbdf7000000000000000000000000000000000000000000000000000000008152600401620000a4919062000278565b60405180910390fd5b620000be816200010760201b60201c565b5080600160006101000a81548173ffffffffffffffffffffffffffffffffffffffff021916908373ffffffffffffffffffffffffffffffffffffffff1602179055505062000295565b60008060009054906101000a900473ffffffffffffffffffffffffffffffffffffffff169050816000806101000a81548173ffffffffffffffffffffffffffffffffffffffff021916908373ffffffffffffffffffffffffffffffffffffffff1602179055508173ffffffffffffffffffffffffffffffffffffffff168173ffffffffffffffffffffffffffffffffffffffff167f8be0079c531659141344cd1fd0a4f28419497f9722a3daafe3b4186f6b6457e060405160405180910390a35050565b600080fd5b600073ffffffffffffffffffffffffffffffffffffffff82169050919050565b6000620001fd82620001d0565b9050919050565b6200020f81620001f0565b81146200021b57600080fd5b50565b6000815190506200022f8162000204565b92915050565b6000602082840312156200024e576200024d620001cb565b5b60006200025e848285016200021e565b91505092915050565b6200027281620001f0565b82525050565b60006020820190506200028f600083018462000267565b92915050565b6116b580620002a56000396000f3fe608060405234801561001057600080fd5b50600436106100a95760003560e01c80638da5cb5b116100715780638da5cb5b1461015857806399dd898e14610176578063c9d27afe14610192578063cf89bb9e146101ae578063f2fde38b146101cc578063fa52c7d8146101e8576100a9565b80630f7ee1ec146100ae578063275bbe9b146100e45780634385963214610102578063679cdb0614610132578063715018a61461014e575b600080fd5b6100c860048036038101906100c39190610eb7565b610219565b6040516100db9796959493929190610f68565b60405180910390f35b6100ec610295565b6040516100f99190611036565b60405180910390f35b61011c6004803603810190610117919061107d565b6102bb565b60405161012991906110bd565b60405180910390f35b61014c60048036038101906101479190610eb7565b6102ea565b005b610156610582565b005b610160610596565b60405161016d91906110d8565b60405180910390f35b610190600480360381019061018b919061114b565b6105bf565b005b6101ac60048036038101906101a7919061118b565b6107a8565b005b6101b6610ae5565b6040516101c391906111cb565b60405180910390f35b6101e660048036038101906101e191906111e6565b610aeb565b005b61020260048036038101906101fd91906111e6565b610b71565b604051610210929190611213565b60405180910390f35b60036020528060005260406000206000915090508060000154908060010154908060020160009054906101000a900473ffffffffffffffffffffffffffffffffffffffff16908060020160149054906101000a900460ff16908060020160159054906101000a900460ff16908060030154908060040154905087565b600160009054906101000a900473ffffffffffffffffffffffffffffffffffffffff1681565b60056020528160005260406000206020528060005260406000206000915091509054906101000a900460ff1681565b80600160009054906101000a900473ffffffffffffffffffffffffffffffffffffffff1673ffffffffffffffffffffffffffffffffffffffff166370a08231336040518263ffffffff1660e01b815260040161034691906110d8565b602060405180830381865afa158015610363573d6000803e3d6000fd5b505050506040513d601f19601f820116820180604052508101906103879190611251565b10156103c8576040517f08c379a00000000000000000000000000000000000000000000000000000000081526004016103bf906112db565b60405180910390fd5b600460003373ffffffffffffffffffffffffffffffffffffffff1673ffffffffffffffffffffffffffffffffffffffff16815260200190815260200160002060000160009054906101000a900460ff1615610458576040517f08c379a000000000000000000000000000000000000000000000000000000000815260040161044f90611347565b60405180910390fd5b600160009054906101000a900473ffffffffffffffffffffffffffffffffffffffff1673ffffffffffffffffffffffffffffffffffffffff166323b872dd3330846040518463ffffffff1660e01b81526004016104b793929190611367565b6020604051808303816000875af11580156104d6573d6000803e3d6000fd5b505050506040513d601f19601f820116820180604052508101906104fa91906113b3565b50604051806040016040528060011515815260200182815250600460003373ffffffffffffffffffffffffffffffffffffffff1673ffffffffffffffffffffffffffffffffffffffff16815260200190815260200160002060008201518160000160006101000a81548160ff0219169083151502179055506020820151816001015590505050565b61058a610ba2565b6105946000610c29565b565b60008060009054906101000a900473ffffffffffffffffffffffffffffffffffffffff16905090565b801561063b576105cd610596565b73ffffffffffffffffffffffffffffffffffffffff163373ffffffffffffffffffffffffffffffffffffffff161461063a576040517f08c379a00000000000000000000000000000000000000000000000000000000081526004016106319061142c565b60405180910390fd5b5b6000600260008154809291906106509061147b565b9190505590506040518060e001604052808281526020018481526020013373ffffffffffffffffffffffffffffffffffffffff168152602001831515815260200160011515815260200160008152602001600081525060036000838152602001908152602001600020600082015181600001556020820151816001015560408201518160020160006101000a81548173ffffffffffffffffffffffffffffffffffffffff021916908373ffffffffffffffffffffffffffffffffffffffff16021790555060608201518160020160146101000a81548160ff02191690831515021790555060808201518160020160156101000a81548160ff02191690831515021790555060a0820151816003015560c08201518160040155905050807f0aeabb37f68264c451ef7842bfbec16c4b43900b8f19753dad40b22db60bf7548460405161079b91906114c3565b60405180910390a2505050565b600460003373ffffffffffffffffffffffffffffffffffffffff1673ffffffffffffffffffffffffffffffffffffffff16815260200190815260200160002060000160009054906101000a900460ff16610837576040517f08c379a000000000000000000000000000000000000000000000000000000000815260040161082e9061152a565b60405180910390fd5b6005600083815260200190815260200160002060003373ffffffffffffffffffffffffffffffffffffffff1673ffffffffffffffffffffffffffffffffffffffff16815260200190815260200160002060009054906101000a900460ff16156108d5576040517f08c379a00000000000000000000000000000000000000000000000000000000081526004016108cc90611596565b60405180910390fd5b6003600083815260200190815260200160002060020160159054906101000a900460ff16610938576040517f08c379a000000000000000000000000000000000000000000000000000000000815260040161092f90611602565b60405180910390fd5b60016005600084815260200190815260200160002060003373ffffffffffffffffffffffffffffffffffffffff1673ffffffffffffffffffffffffffffffffffffffff16815260200190815260200160002060006101000a81548160ff02191690831515021790555060006003600084815260200190815260200160002090508060020160149054906101000a900460ff1680156109d35750815b15610a2b576109e133610ced565b3373ffffffffffffffffffffffffffffffffffffffff16837f51169820f0531e9cf347b9b08afb44e95171a1a8f033a39b7f3d5155ad577e1060405160405180910390a350610ae1565b8115610a5057806003016000815480929190610a469061147b565b9190505550610a6b565b806004016000815480929190610a659061147b565b91905055505b3373ffffffffffffffffffffffffffffffffffffffff16837fe71fcdac32df1877c1700e7bda2a03157e20993363a28fc35ac495cefc76e4d484604051610ab291906110bd565b60405180910390a3600381600401548260030154610ad09190611622565b10610adf57610ade83610e42565b5b505b5050565b60025481565b610af3610ba2565b600073ffffffffffffffffffffffffffffffffffffffff168173ffffffffffffffffffffffffffffffffffffffff1603610b655760006040517f1e4fbdf7000000000000000000000000000000000000000000000000000000008152600401610b5c91906110d8565b60405180910390fd5b610b6e81610c29565b50565b60046020528060005260406000206000915090508060000160009054906101000a900460ff16908060010154905082565b610baa610e74565b73ffffffffffffffffffffffffffffffffffffffff16610bc8610596565b73ffffffffffffffffffffffffffffffffffffffff1614610c2757610beb610e74565b6040517f118cdaa7000000000000000000000000000000000000000000000000000000008152600401610c1e91906110d8565b60405180910390fd5b565b60008060009054906101000a900473ffffffffffffffffffffffffffffffffffffffff169050816000806101000a81548173ffffffffffffffffffffffffffffffffffffffff021916908373ffffffffffffffffffffffffffffffffffffffff1602179055508173ffffffffffffffffffffffffffffffffffffffff168173ffffffffffffffffffffffffffffffffffffffff167f8be0079c531659141344cd1fd0a4f28419497f9722a3daafe3b4186f6b6457e060405160405180910390a35050565b6000600460008373ffffffffffffffffffffffffffffffffffffffff1673ffffffffffffffffffffffffffffffffffffffff16815260200190815260200160002090506000816001015490506000826001018190555060008260000160006101000a81548160ff021916908315150217905550600160009054906101000a900473ffffffffffffffffffffffffffffffffffffffff1673ffffffffffffffffffffffffffffffffffffffff16639dc29fac30836040518363ffffffff1660e01b8152600401610dbd929190611656565b600060405180830381600087803b158015610dd757600080fd5b505af1158015610deb573d6000803e3d6000fd5b505050508273ffffffffffffffffffffffffffffffffffffffff167f17bddadfd7ec8898c3b9eadd0cf5ae77ba8d5df3a50e96ab86ec2dd711aa8fbb82604051610e3591906111cb565b60405180910390a2505050565b60006003600083815260200190815260200160002060020160156101000a81548160ff02191690831515021790555050565b600033905090565b600080fd5b6000819050919050565b610e9481610e81565b8114610e9f57600080fd5b50565b600081359050610eb181610e8b565b92915050565b600060208284031215610ecd57610ecc610e7c565b5b6000610edb84828501610ea2565b91505092915050565b610eed81610e81565b82525050565b6000819050919050565b610f0681610ef3565b82525050565b600073ffffffffffffffffffffffffffffffffffffffff82169050919050565b6000610f3782610f0c565b9050919050565b610f4781610f2c565b82525050565b60008115159050919050565b610f6281610f4d565b82525050565b600060e082019050610f7d600083018a610ee4565b610f8a6020830189610efd565b610f976040830188610f3e565b610fa46060830187610f59565b610fb16080830186610f59565b610fbe60a0830185610ee4565b610fcb60c0830184610ee4565b98975050505050505050565b6000819050919050565b6000610ffc610ff7610ff284610f0c565b610fd7565b610f0c565b9050919050565b600061100e82610fe1565b9050919050565b600061102082611003565b9050919050565b61103081611015565b82525050565b600060208201905061104b6000830184611027565b92915050565b61105a81610f2c565b811461106557600080fd5b50565b60008135905061107781611051565b92915050565b6000806040838503121561109457611093610e7c565b5b60006110a285828601610ea2565b92505060206110b385828601611068565b9150509250929050565b60006020820190506110d26000830184610f59565b92915050565b60006020820190506110ed6000830184610f3e565b92915050565b6110fc81610ef3565b811461110757600080fd5b50565b600081359050611119816110f3565b92915050565b61112881610f4d565b811461113357600080fd5b50565b6000813590506111458161111f565b92915050565b6000806040838503121561116257611161610e7c565b5b60006111708582860161110a565b925050602061118185828601611136565b9150509250929050565b600080604083850312156111a2576111a1610e7c565b5b60006111b085828601610ea2565b92505060206111c185828601611136565b9150509250929050565b60006020820190506111e06000830184610ee4565b92915050565b6000602082840312156111fc576111fb610e7c565b5b600061120a84828501611068565b91505092915050565b60006040820190506112286000830185610f59565b6112356020830184610ee4565b9392505050565b60008151905061124b81610e8b565b92915050565b60006020828403121561126757611266610e7c565b5b60006112758482850161123c565b91505092915050565b600082825260208201905092915050565b7f496e73756666696369656e742052455000000000000000000000000000000000600082015250565b60006112c560108361127e565b91506112d08261128f565b602082019050919050565b600060208201905081810360008301526112f4816112b8565b9050919050565b7f416c726561647920726567697374657265640000000000000000000000000000600082015250565b600061133160128361127e565b915061133c826112fb565b602082019050919050565b6000602082019050818103600083015261136081611324565b9050919050565b600060608201905061137c6000830186610f3e565b6113896020830185610f3e565b6113966040830184610ee4565b949350505050565b6000815190506113ad8161111f565b92915050565b6000602082840312156113c9576113c8610e7c565b5b60006113d78482850161139e565b91505092915050565b7f4f6e6c792061646d696e2063616e207365742074726170646f6f727300000000600082015250565b6000611416601c8361127e565b9150611421826113e0565b602082019050919050565b6000602082019050818103600083015261144581611409565b9050919050565b7f4e487b7100000000000000000000000000000000000000000000000000000000600052601160045260246000fd5b600061148682610e81565b91507fffffffffffffffffffffffffffffffffffffffffffffffffffffffffffffffff82036114b8576114b761144c565b5b600182019050919050565b60006020820190506114d86000830184610efd565b92915050565b7f4e6f7420612076616c696461746f720000000000000000000000000000000000600082015250565b6000611514600f8361127e565b915061151f826114de565b602082019050919050565b6000602082019050818103600083015261154381611507565b9050919050565b7f416c726561647920766f74656400000000000000000000000000000000000000600082015250565b6000611580600d8361127e565b915061158b8261154a565b602082019050919050565b600060208201905081810360008301526115af81611573565b9050919050565b7f417564697420636c6f7365640000000000000000000000000000000000000000600082015250565b60006115ec600c8361127e565b91506115f7826115b6565b602082019050919050565b6000602082019050818103600083015261161b816115df565b9050919050565b600061162d82610e81565b915061163883610e81565b92508282019050808211156116505761164f61144c565b5b92915050565b600060408201905061166b6000830185610f3e565b6116786020830184610ee4565b939250505056fea26469706673582212203181d51fa8d51076683e74a79bbb0884a33041ed0c5929794de4edbfd9a4ef8164736f6c63430008180033",
  "linkReferences": {},
  "deployedLinkReferences": {}
}